:020000040800F2
:10000000503A0020D5000008492700083B2300088B
:1000100000000000000000000000000000000000E0
:100020000000000000000000000000004728000859
:100030000000000000000000912700084928000887
:10004000E7000008E7000008E7000008E7000008F4
:10005000E7000008E7000008E7000008E7000008E4
:10006000E7000008E7000008E70000084D05000869
:10007000E7000008E7000008E7000008E7000008C4
:100080002D290008E7000008E7000008E700000845
:10009000E7000008E7000008E7000008E7000008A4
:1000A000E7000008E7000008E7000008112F00083B
:1000B000E7000008E7000008E7000008E700000884
:1000C0000348854600F030FA004800474D300008EC
:1000D000503A00200448804704480047FEE7FEE706
:1000E000FEE7FEE7FEE7FEE7D1280008C1000008B2
:1000F00030B50B46014600202022012409E00D46C0
:10010000D5409D4205D31D469540491B2546954047
:1001100040191546521E002DF1DC30BD70B500248B
:100120002546002801DA01244042002901DA012590
:100130004942FFF7DDFFAC4200D04042002C00D026
:10014000494270BD10B5202A04DB0846203AD04051
:10015000002110BD0B46D340D0402024A21A91406C
:100160000843194610BD03460B439B0703D009E023
:1001700008C9121F08C0042AFAD203E00B780370E2
:10018000401C491C521EF9D270470000F0B50746CA
:100190000846584087B0C00F049048000E465900EA
:1001A00040084908BC1A884105D2384631461E46E7
:1001B00017460B4602465800400810434CD0300DFD
:1001C000039040055900400D490D0590401A0290DA
:1001D000402872DA18030121000B09050843019039
:1001E00004980092002805D00199524200208841CD
:1001F00000920190029840210A1A0199009800F09B
:10020000CFF805460C466B4607CB00F0D9F8C0196D
:100210007141039A0E0D0023D71756401A467A40B3
:10022000164344D0049A002A2DD0029A012A039A38
:1002300015DC1205C01A914101263605001C7141DA
:10024000D20F059ED2070093019202962A462346BA
:1002500000F017F907B0F0BD38463146FAE7160549
:10026000224A0F46B218C01AB74101210905001CE5
:100270004F4100187F41114618187941E20F104391
:100280006D19644113E0E2076D0815436408C20765
:100290001443039A01261205C01A91413605001C29
:1002A0007141CE07400830434908C01851412A46E1
:1002B000234600F0D9F8CDE7FFE70498012240007B
:1002C000C117121A00238B4104983146C417381AFB
:1002D000A141EEE730B40124E407634030BC55E7A8
:1002E00030B40124E407614030BC4FE70000E0FF78
:1002F00010B500229623114600F07DF810BDC20F04
:10030000410040020123400ADB05D207090EC01854
:100310007F2901DA00207047962903DC9623591AB9
:10032000C84001E096398840002AF4D04042704726
:1003300070B5CD0F4A0009030123090B1B051943B2
:100340000B4BED070024520D9A4201DA002070BDDC
:10035000074B34339A4203DC9A1AFFF7F3FE02E0AC
:100360000449511888402C43F1D0404270BD000030
:10037000FF030000CDFBFFFFC20FD2074000400883
:100380000BD0C10D0723DB01C91840020905400A43
:100390001143C208400711437047002001467047CF
:1003A00010B5202A04DB0146203A9140002010BD00
:1003B000914020239C1A0346E3401943904010BD0E
:1003C00010B5202A06DBCB170846203A1041C1178A
:1003D0000B4306E00B461341D0402024A21A914063
:1003E0000843194610BD002904DA401C490001D118
:1003F00040084000704770B40024050C05D110245B
:10040000000402D1002921D01124050E01D10002DF
:100410000834050F01D10001241D850F01D1800092
:10042000A41C002801DB4000641C002908D0202502
:100430002E1B0D46F540A14000D001212943084361
:1004400001061B1B000ADB1D02D5002070BC704793
:10045000DB05181880180029F8DA401C4900F5D18E
:1004600070BC40084000704710B5002B08DA00242B
:10047000401C614192185B411A4301D14008400081
:1004800010BDF0B51FB482B005460C0003D008467D
:1004900002F0A9FD02E002F0A6FD20300246009025
:1004A00021462846FFF77CFF049B059A04460F4629
:1004B00018431143084314D0184610431BD000982A
:1004C00040210A1A18460599FFF73CFE05460E46DC
:1004D000009A05990498FFF763FF084305D00120AF
:1004E00004E02046394607B0F0BD0020C11705439F
:1004F0000E432C43374300990E986305401A790543
:10050000E40A00220C43FD0A0A3002D5002001460D
:10051000E9E70105101969410C9C0D9D001969411D
:10052000FFF7A2FFDFE70000064C0125064E05E0BD
:10053000E36807CC2B430C3C98471034B442F7D304
:10054000FFF7C2FDB8310008D831000810B50348E4
:1005500000F000FC024800F0FDFB10BDFC01002093
:10056000B801002010B50446006805494018142160
:10057000FFF7BEFD800020640248E06310BD00006C
:10058000F8FFFDBF0000024030B5056C0124AC400F
:10059000C56B6C60046863604368102B036803D00C
:1005A00099600068C26030BD9A600068C16030BD6B
:1005B000F0B5C5B0012403A9FE4802F0EAF801280D
:1005C0007CD16846407BFC4F0126002501280CD0D9
:1005D00002281FD0032832D0042845D0052858D03F
:1005E00006286ED0AA286BD013E100220121F3481F
:1005F00000F01CFD6946887B01234100B420401AAD
:1006000040A90873102043A9009102460196029068
:100610005E216AE000220221E84800F007FD6946F9
:10062000887B01234100B420401A40A908731020A0
:1006300043A900910246019602905C2155E00022F8
:100640000421DE4800F0F2FC6946887B012341006A
:10065000B420401A40A90873102043A90091024613
:1006600001960290582140E000220821D34800F072
:10067000DDFC6946887B01234100B420401A40A973
:100680000873102043A9009102460196029056215A
:100690002BE000221021C94800F0C8FC6946887B85
:1006A00001234100B420401A40A90873102043A937
:1006B0000091024601960290542116E024E100E0E8
:1006C00017E000222021BD4800F0B0FC6946887B7D
:1006D00001234100B420401A40A90873102043A907
:1006E00000910246019602905021B54800F04EFD5F
:1006F0008FE06846807BA12836D007DC030002F03B
:1007000089FC07880F151B21272D8800A2380300BC
:1007100002F080FC0938475563717F7F7FA17F001D
:1007200001221146A54800F081FC29E001220221A6
:10073000A24800F07BFC32E0012204219F4800F037
:1007400075FC3AE0012208219C4800F06FFC42E071
:1007500001221021994800F069FC4AE00122202181
:10076000964800F063FC52E000220121934800F01B
:100770005DFC3878002803D09248067092480CE05F
:10078000904845E0002202218C4800F04FFC387868
:10079000002804D08D4806708D48056039E08B48EC
:1007A00036E000220421854800F040FC387800281B
:1007B00003D0884806708848EFE7864828E0002282
:1007C00008217E4800F032FC3878002803D08348A6
:1007D00006708348E1E781481AE00022102177483B
:1007E00000F024FC3878002803D07E4806707E484C
:1007F000D3E77C480CE000222021704800F016FC72
:100800003878002803D0794806707948C5E77748DA
:1008100005706846407B7D21C900402872D043DCCA
:1008200010285AD020286ED030286DD16846807BA1
:1008300030286AD06A46D27B0A2A67D06B461B7C76
:100840000A2B73D06B465B7C0A2B70D06846807C89
:100850000A286DD02CE101221146584800F0E6FB31
:1008600001220221554800F0E1FB012204215348F6
:1008700000F0DCFB01220821504800F0D7FB0122E8
:1008800010214E4800F0D2FB012220214B4800F0FD
:10089000CDFB4C4805704D4805704E4805704F48DB
:1008A000057050480570B2E750287DD060282BD1E4
:1008B0006846807B302878D06A46D27B0A2A75D079
:1008C0006B461B7C0A2B72D06B465B7C0A2B6FD06D
:1008D0006846807C0A286CD0BFE16846807B30285F
:1008E00015D06A46D27B0A2A18D06B461B7C0A2B8D
:1008F00016D06B465B7C0A2B1BD06846807C0A288E
:1009000023D023E0F0E03DE090E1B5E0BBE0002241
:1009100001212A4800F08AFB2A4885E1303812E09C
:100920000A2130384843303810180CE0ADE0B2E00E
:10093000BDE064213038484311180A204243212089
:100940000001101A081884B200E00C46214629481C
:10095000FFF7CEFBFFF7CCFC0090FFF70DFD002268
:10096000254BFFF713FCFFF7E3FC04460098FFF765
:10097000C6FC844200DD401C2049088011480670F6
:10098000114885E16846807B30283DD06A46D27B9D
:100990000A2A40D06B461B7C0A2B3ED06B465B7C00
:1009A0000A2B40D068462BE0EBE037E140E141E123
:1009B00046E151E1400400203C00002000080048CE
:1009C0004C0000200C00002010000020140000202B
:1009D000180000201C00002020000020240000201F
:1009E000280000202C0000203000002034000020CF
:1009F00038000020102700000000E03F0000002029
:100A0000807C0A281BD01BE000220121A24800F0B4
:100A10000DFBA24808E130380FE00A213038484386
:100A20003038101809E064213038484311180A2082
:100A3000424321200001101A081884B200E00C463D
:100A400021469748FFF754FBFFF752FC0090FFF751
:100A500093FC0022934BFFF799FBFFF769FC0446D8
:100A60000098FFF74CFC844200DD401C8E49088052
:100A70008A4806708D480BE100220121864800F06B
:100A8000D5FA8B48D0E030380FE00A21303848439F
:100A90003038101809E064213038484311180A2012
:100AA000424321200001101A081884B200E00C46CD
:100AB00021467B48FFF71CFBFFF71AFC0090FFF76D
:100AC0005BFC0022774BFFF761FBFFF731FC04462C
:100AD0000098FFF714FC844200DD401C7549088033
:100AE000734806707448D3E06846807B302810D085
:100AF0006A46D27B0A2A13D06B461B7C0A2B11D084
:100B00006B465B7C0A2B13D06846807C0A281BD07E
:100B10001BE000220121604800F088FA674883E06A
:100B200030380FE00A21303848433038101809E0D7
:100B300064213038484311180A2042432120000123
:100B4000101A081884B200E00C4621465448FFF7FA
:100B5000CFFAFFF7CDFB0090FFF70EFC0022514BC0
:100B6000FFF714FBFFF7E4FB04460098FFF7C7FB11
:100B7000844200DD401C52490880504806705148AC
:100B800086E06846807B302810D06A46D27B0A2AED
:100B900013D06B461B7C0A2B11D06B465B7C0A2B57
:100BA00013D06846807C0A281BD01BE0002201215C
:100BB000394800F03BFA444836E030380FE00A216B
:100BC000303848433038101809E064213038484341
:100BD00011180A20424321200001101A081884B27B
:100BE00000E00C4621462E48FFF782FAFFF780FB13
:100BF0000090FFF7C1FB00222A4BFFF7C7FAFFF76F
:100C000097FB04460098FFF77AFB844200DD401C06
:100C10002E4908802C4806702D4839E00022012119
:100C20001D4800F003FA2B4805703D7045B0F0BD3B
:100C300030380FE00A21303848433038101809E0C6
:100C400064213038484311180A2042432120000112
:100C5000101A081884B200E00C4621461048FFF72D
:100C600047FAFFF745FB0090FFF786FB00220D4B8C
:100C7000FFF78CFAFFF75CFB04460098FFF73FFB99
:100C8000844200DD401C1449088012480670134855
:100C900005603E70CAE7000000080048140000200C
:100CA000102700000000E03F020000201800002094
:100CB0001C00002004000020200000202400002050
:100CC00006000020280000202C0000200800002042
:100CD00030000020340000200A00002038000020EE
:100CE00001680A680E239A430A6001680A6852087C
:100CF00052000A600123026C19469140C26B516098
:100D000020304370002101700846704770B5002400
:100D1000014620314A78022A03D00421816301244C
:100D200016E0026813680E25AB431360026813686F
:100D30005B085B0013600125036C2A469A40C36B75
:100D40005A604D7000220A70416B002900D088471C
:100D5000204670BDF0B4C16B0C6801680B680422BA
:100D6000056C1646AE4026420DD05E070BD50B68CB
:100D70009B0602D40B6893430B60016C8A40C16BE5
:100D80004A60C16A19E00227AF40024627400126A7
:100D90002032002F15D09F0713D50B689B0604D473
:100DA0000B680A24A3430B605670036C0221994020
:100DB000C36B596000211170816A002916D0F0BC04
:100DC00008470827AF40274210D01B070ED50B68F5
:100DD0000E24A3430B60036C31469940C36B5960EA
:100DE0008663567000211170016BE6E7F0BC704716
:100DF00070B5040023D00220254620356870206895
:100E00000168104AA3681140626826691A43E368C2
:100E100033431A4363691A43A3691A43E3691A43C4
:100E20000A4302602046FFF79DFB0020A062E062BB
:100E300020636063A06301216970287070BD012088
:100E400070BD00000FC0FFFFF8B504468C4620308F
:100E500001780025012909D0012606704778002174
:100E6000012F05D0017002252846F8BD0220F8BDEB
:100E700002274770A16320680168490849000160A2
:100E800061462046FFF780FBE06A00282068016881
:100E900002D00E22114306E00A22114301602068AD
:100EA00001680422914301602068016831430160B8
:100EB000DAE731B500F0C0F8009C0546601C00D0B0
:100EC000641C00F0B9F8401BA042FAD338BD000002
:100ED000F8B5002292E001249440A44623407DD03E
:100EE0004C68022C01D0122C0CD1D408A400261876
:100EF000356A5407E40E0F27A740BD430F69A7408A
:100F00002F433762066855000324AC400F79A6438F
:100F1000BF07BF0FAF40374307604E68012E05D0B3
:100F2000022E03D0112E01D0122E0ED18668CF686A
:100F3000A643AF403743876047686646B7430E799C
:100F4000F606F60F96403E434660C668A6438C6898
:100F5000AC403443C4604C68E4004ED52A4CA569CB
:100F600001263543A561A469950834400094274CB7
:100F7000AD002F19BD689407240F0F26A640B54376
:100F80000926F606B04201D1002614E0204EB042F8
:100F900001D101260FE01F4EB04201D102260AE026
:100FA0001D4EB04201D1032605E01C4EB04201D1D6
:100FB000042600E00526A6402E43BE60184D2C688E
:100FC0004E689C43F60300D51C432C606C684E6849
:100FD0009C43B60300D51C436C6000E00DE0AC6898
:100FE0004E689C43F60200D51C43AC60EC684E682A
:100FF0009C43B60200D51C43EC60521C0B681C4697
:10100000D44000D067E7F8BD001002400000014066
:101010000004004800080048000C00480010004888
:101020000004014042694A4042617047002A01D0F1
:101030008161704781627047014800687047000015
:101040004000002070B5024640325378202B1CD15E
:101050001378012B19D001241470242353700368D2
:101060001D68A5431D6003681D682603B5431D6008
:1010700003681D680D431D6000680168214301601D
:10108000202050700020107070BD022070BD70B51F
:10109000024640325378202B1BD11378012B18D0F5
:1010A000012515702423537003681C68AC431C6031
:1010B00003681C680F263602B443090221431960F5
:1010C00000680168294301602020507000201070E2
:1010D00070BD022070BD000070B5040006D025462A
:1010E000403568780026002802D005E0012070BD58
:1010F0002E70204600F0F4F8242068702068016803
:101100004908490001600F21606809068843216889
:101110000861206882680121C9038A438260E0680F
:101120000128A06808D02122920210432268906012
:10113000E068022802D005E00843F7E701202268B2
:10114000C0025060206842680F4B1A43426020681A
:10115000C2688A43C260616920690843A1690902C3
:1011600008432168C860216AE06908432168086073
:1011700020680168012211430160666420206870C4
:101180002663AE70002070BD00800002FFB50546EA
:1011900004464035687883B0202876D10C98002822
:1011A00074D00D98002871D0287801286DD00120C6
:1011B0002870FFF741FF0746012200901923D10351
:1011C000204601F04FF9002853D1212068704020BB
:1011D000A870002666640C9860620D98608566634E
:1011E0000E980090019704A90EC9204601F0F2F86C
:1011F000002804D0606C2E7004286AD039E0608D1D
:10120000FF2805D9FF22228501231B06009606E050
:10121000608D20850096208D0123C2B25B0620469A
:10122000049901F00DF93A4620460E9901F065F94E
:10123000002803D0606C04284BD01AE0606A411C7F
:101240006162216800788862608D401E6085208D13
:10125000401E0004000C208524D1608D002821D080
:1012600000970022802120460E9B01F0FBF8002809
:1012700002D0032007B0F0BD608DFF2807D9FF2200
:10128000228501231B06009608E024E021E0608D02
:1012900020850096208D0123C2B25B06204604996A
:1012A00001F0CEF8608D0028BDD13A4620460E9957
:1012B00001F0FCF80028BDD120682021C161206820
:1012C0004268064B1A4042606970AE702E70002072
:1012D000D0E70120CEE70220CCE7000000E800FEC6
:1012E00000B500680D4987B0884215D1C020009034
:1012F000122001210190032002910491039069467C
:101300000748FFF7E5FD0748C269012149050A437F
:10131000C261C0690840059007B000BD005400409C
:10132000000400480010024002480168491C0160A6
:10133000704700004000002010B5064801681022E8
:1013400011430160002000F007F800F017F80020BA
:1013500010BD00000020024010B5044600F078F9EE
:101360007D21C900FEF7C4FE00F0C4FB0022214627
:10137000501E00F02FF8002010BD000008B50F48E7
:101380008169012211438161816911400091C26923
:1013900001040A43C261C06900220840009011465E
:1013A000501F00F017F800221146901E00F012F8AE
:1013B00000221146501E00F00DF808BD001002403A
:1013C000C106C90E0120884001490860704700002D
:1013D00000E100E010B501F0B9F910BDF8B5044620
:1013E0000068434DC00353D5E8690026C00007D408
:1013F000E96928040143E961E96901400126009196
:101400003C480168C90510D4016882151143016088
:10141000FFF712FE074604E0FFF70EFEC01B64282C
:1014200023D834480068C005F6D5286A032109028C
:1014300008401FD062680A4082421BD0286A2A6A8C
:101440008843012109040A432A622A6A8A432A62DC
:101450002862C0070ED0FFF7EFFD074607E0FFF751
:10146000EBFDC11B2448814201D90320F8BD286A45
:101470008007F4D5286A032109028843616808437C
:101480002862002E04D0E969012000078143E96148
:101490002078C00705D0286BA16880088000084329
:1014A00028632078800706D5286B03210904884328
:1014B000E168084328632078800605D5286B102151
:1014C00088432169084328632068800305D5286B79
:1014D00080218843A169084328632088400505D5F9
:1014E000286B402188436169084328630020F8BDC8
:1014F000001002400070004088130000F8B5054657
:101500004E480E460068C007C00FB0420AD24B4892
:10151000016849084900314301600068C007C00FF5
:10152000B04270D12878464F800705D57868F02101
:101530008843A968084378602878C00753D0686852
:10154000012817D0022818D0032819D03968890734
:10155000002958DA79688908890001437960FFF722
:101560006BFD04466868012813D002281DD00328AB
:1015700027D034E039688903EAE739688901E7E769
:10158000796BC903E4E7FFF757FD011B2D48814242
:1015900023D878680007800F0128F4D123E0FFF7F3
:1015A0004BFD011B2748814217D878680007800F40
:1015B0000228F4D117E0FFF73FFD011B21488142CB
:1015C0000BD878680007800F0328F4D10BE0FFF7F1
:1015D00033FD011B1B48814201D90320F8BD786807
:1015E0000007800FF3D115480168C907C90FB14240
:1015F0000BD9016849084900314301600068C00700
:10160000C00FB04201D00120F8BD2878400706D5B0
:101610007868072109028843E9680843786000F088
:101620002DF87968084A0906090F515CC840074936
:1016300008600020FFF790FE0020F8BD0020024067
:1016400000100240881300009E310008480000206E
:101650000148006870470000480000200448054920
:1016600000684968044A4905490F515CC840704701
:101670004800002000100240AE31000830B516A02E
:101680000FC889B06C460FC417A00FC80FC41A4DFD
:101690006A680C20114601401848042905D0184BEF
:1016A000082904D00C2900D1184609B030BD910298
:1016B000090F6C46645CE96A04AD0907090FD2039F
:1016C000695C920F022A02D0032A00D11846FEF765
:1016D0000FFD6043E9E7000002030405060708095F
:1016E0000A0B0C0D0E0F101001020304050607086B
:1016F000090A0B0C0D0E0F100010024000127A00A8
:10170000006CDC02FEB504460078EF4EEF4DC007DA
:1017100047D068680007800F012818D06868000764
:10172000800F022804D16868C003800F02280ED001
:101730006068012812D001218904002801D0052801
:1017400016D02868B04328602868884308E02868D5
:10175000800326D56068002873D022E028683043D3
:1017600028606068002810D0FFF766FC074608E094
:10177000286808432860F1E7FFF75EFCC01B642877
:1017800070D828688003F7D50BE0FFF755FC0746B3
:1017900004E0FFF751FCC01B6428F1D828688003DF
:1017A000F7D4207880073ED568680007800F14D0F2
:1017B00068680007800F022804D16868C003800FA2
:1017C00001280AD0E068002828681DD001210843BC
:1017D0002860FFF731FC07460BE0286880070BD52F
:1017E000E06801282DD107E0FFF726FCC01B022886
:1017F000C6D828688007F7D52868F821884321696A
:10180000C900084328600EE0400840002860FFF748
:1018100013FC074604E0FFF70FFCC01B0228AFD8FB
:1018200028688007F7D42078000724D5E0690028CD
:10183000686A10D0012108436862FFF7FDFB074684
:1018400005E03FE1FFF7F8FBC01B022898D8686A63
:101850008007F7D50FE0400840006862FFF7ECFB17
:10186000074605E0C3E0FFF7E7FBC01B022887D867
:10187000686A8007F7D4207804274007002861DAD7
:1018800000200190E869C00008D4E969B806014366
:10189000E961E96901400120009101908C480168EB
:1018A000C90511D40168821511430160FFF7C4FB1B
:1018B000009005E0FFF7C0FB0099401A642897D814
:1018C00083480068C005F5D5A06801280AD0002823
:1018D00001D0052811D0286A400840002862286AF3
:1018E000B84302E0286A012108432862A068002862
:1018F00012D0FFF7A1FB00900AE0286A3843286263
:10190000F0E7FFF799FB0099411A724881426ED8BF
:10191000286A8007F5D50DE0FFF78EFB009006E002
:10192000FFF78AFB0099411A6A4881425FD8286A0A
:101930008007F5D40198002804D0E869012109073F
:101940008843E8612078C00635D5606901280CD04D
:10195000401D686B24D038436863686B40084000C2
:101960006863FFF769FB074622E0686B38436863EA
:10197000686B012108436863FFF75EFB074604E0DC
:10198000FFF75AFBC01B022831D8686B8007F7D5D8
:10199000686BF8218843A169C900084368630AE0BD
:1019A000B8436863F4E7FFF747FBC01B02281ED863
:1019B000686B8007F7D42078800637D56868000701
:1019C000800F032814D068680007800F022804D114
:1019D0006868C003800F03280AD0206A0028686B5B
:1019E00016D030436863FFF727FB06460CE062E041
:1019F000686BC0031AD5206A012863D116E0FFF78F
:101A00001BFB801B022856D8686BC003F7D50DE07E
:101A1000B0436863FFF710FB064604E0FFF70CFBDA
:101A2000801B022847D8686BC003F7D4606A00287F
:101A300046D069680907890F022943D001273F066C
:101A40000228286805D0B8432860FFF7F5FA044655
:101A500033E0B8432860FFF7EFFA064604E0FFF7EB
:101A6000EBFA801B022826D828688001F7D4E86AA0
:101A7000216B000900010843E862A16AE06A08439B
:101A800069687B22D2039143084368602868384321
:101A90002860FFF7D1FA044604E0FFF7CDFA001BF7
:101AA000022808D828688001F7D509E0FFF7C4FAB2
:101AB000001B022801D90320FEBD28688001F5D44F
:101AC0000020FEBD0120FEBD00000100001002400C
:101AD00000700040881300000422044904280869AB
:101AE00002D09043086170471043FBE700E000E03C
:101AF00070470000094910B5401E884201D90120F5
:101B000010BD074C60610321081F00F01FFE00207C
:101B1000A06107202061002010BD0000FFFFFF0032
:101B200000E000E010B5FFF7E3FF10BD704770471D
:101B300070B502462032137F012B1BD0012414778D
:101B40000223537703685D687026B5435D600368C0
:101B50005D680E6835435D6003689D688026B54307
:101B60009D600068836849680B4383605477002058
:101B7000107770BD022070BD70B5040005D02546F9
:101B80002035687F002802D006E0012070BD0020CB
:101B90002877204600F00AF802206877211D206887
:101BA00000F0CCFE01206877002070BD08B5006809
:101BB000094988420FD10948C26902210A43C2611A
:101BC000C06900220840009011461020FFF702FC77
:101BD0001020FFF7F5FB08BD000400400010024094
:101BE0000168CA6801231A43CA6000680168194382
:101BF000016000207047F8B5054604462035287F6F
:101C0000012817D001272F77022068772068826883
:101C10007726FF23B2431B029A438260086850284C
:101C200036D00EDC202856D006DC00284DD01028F7
:101C30003FD14DE00220F8BD30284FD0402838D1A8
:101C40003BE060282CD0702816D001221203801AA5
:101C50000DD090422DD1CB684A688968206800F089
:101C6000B7FE206881680122920311430EE02068CC
:101C70008168C908C90009E0CB684A68896820689A
:101C800000F0A6FE20688168B1433143816010E016
:101C9000CA684968206800F0AEFE5021206806E05E
:101CA000CA684968206800F0B7FE6021206800F02B
:101CB0009AFE6F7700202877F8BDCA6849682068C7
:101CC00000F099FE40212068F1E700212068EEE74E
:101CD00010212068EBE720212068E8E73021206808
:101CE000E5E7704770B50446006801690025C943FF
:101CF0008907002915DBC168C943890711D4E91E8A
:101D0000016101202077206880698007204602D089
:101D1000FFF7E7FF04E000F096F8204600F094F8A3
:101D2000257720680169C943490717D4C168C943A9
:101D3000490713D40421C943016102202077206898
:101D400080698005800F204602D0FFF7CAFF04E0BB
:101D500000F079F8204600F077F8257720680169CF
:101D6000C943090716D4C168C943090712D4082119
:101D7000C9430161042020772068C069800720469C
:101D800002D0FFF7AEFF04E000F05DF8204600F05F
:101D90005BF8257720680169C943C90617D4C16873
:101DA000C943C90613D41021C94301610820207713
:101DB0002068C0698005800F204602D0FFF791FFA0
:101DC00004E000F040F8204600F03EF82577206857
:101DD0000169C943C90708D1C168C943C90704D10A
:101DE000891E0161204600F031F820680169C9436D
:101DF000090609D4C168C943090605D48021C9432D
:101E000001612046FFF792FE20680169C943490637
:101E100009D4C168C943490605D44021C9430161B9
:101E2000204600F0A9F820680169C943890609D451
:101E3000C168C943890605D42021C94301612046F0
:101E4000FFF775FE70BD70477047000070B53648EB
:101E50000078012867D1354800240078344D0128E6
:101E60000CD13448344A0168491C016012889142FF
:101E700004D1046001212846FFF7D4F82F480078E8
:101E800001280CD12E482F4A0168491C0160128894
:101E9000914204D1046002212846FFF7C3F82A4882
:101EA000007801280CD12949294A0868401C08609B
:101EB0001288904204D10C6004212846FFF7B2F842
:101EC0002448007801280CD12349244A0868401C82
:101ED00008601288904204D10C6008212846FFF760
:101EE000A1F81F48007801280CD11E491E4A086835
:101EF000401C08601288904204D10C6010212846D2
:101F0000FFF790F81948007801280CD11849194AB0
:101F10000868401C08601288904204D10C6020219F
:101F20002846FFF77FF870BD3C0000200C00002021
:101F300000080048100000200000002014000020CD
:101F400018000020020000201C00002020000020BB
:101F500004000020240000202800002006000020AB
:101F60002C00002030000020080000203400002059
:101F7000380000200A0000207047704770B5044602
:101F800060300546407A21280FD120688168090613
:101F90000BD58168802291438160206E002801D09A
:101FA000FEF79EFE204600F05AFEA87A22280FD1A6
:101FB0002068816849060BD5816840229143816081
:101FC000606E002801D0FEF78BFE204600F02BFE4D
:101FD000002070BD70470000F8B502680446D06963
:101FE000116805072D0F07D1830605D58B0603D58C
:101FF000204600F03DFEF8BD9368002D64D0DD075B
:10200000ED0FFF2621360E402E435DD0C60706D0C9
:10201000CE0504D501261662E26E3243E2668607DB
:1020200002220427002E06DADE0704D02668326278
:10203000E66E3E43E666460706D5DB0704D0236816
:102040001F62E36E1343E366020709D520220A40AC
:102050002A4305D0236808221A62E36E1343E3661D
:10206000E26E002AC7D0800604D5880602D5204635
:1020700000F0FEFDE06E000703D420688068400693
:102080001CD5204600F0CFFD20688168490611D597
:102090008168402291438160606E00280AD01A490D
:1020A0004163606EFEF732FE0028A4D0606E416B83
:1020B0008847F8BD2046FFF78DFFF8BD2046FFF7A3
:1020C00089FF0020E066F8BDC5020DD55B020BD587
:1020D000012000051062202120466030417281728B
:1020E0002046FFF74AFFF8BD020605D50A0603D5CC
:1020F000204600F0A9FEF8BD4006FCD54806FAD5FA
:10210000204600F09FFDF8BD7D2B000870B504004F
:1021100005D025466035687A002802D006E0012007
:1021200070BD00202872204600F026F82420687236
:1021300020680168490849000160204600F0D6FD8A
:102140000128EDD0606A002802D0204600F077FC1C
:10215000206841680922D202914341602068816869
:102160002A229143816020680168012211430160A5
:10217000204600F0C9FC70BDF0B504460068364A40
:102180003649022703230125002687B090424BD110
:102190008A69A80302438A61896901970140059110
:1021A0005802009009200296049503936946C006E0
:1021B000FEF78EFE2A482B4D41C52E60AE60EE60C4
:1021C0002E6180206E6168602648083DFEF710FE93
:1021D000002803D0CC2124A000F004FF294F386848
:1021E00039150843386065661D486C62264D143801
:1021F00028601020AE6068602E616E61AE61802044
:10220000EE61E8602846FEF7F3FD002803D0DE21EA
:1022100015A000F0E7FE3868012149020843386044
:1022200025666C6207B0F0BD184A9042FAD1C869C1
:10223000012252041043C861C869694610400590E4
:102240000C20009009200197029604950393C00684
:10225000FEF73EFEE6E700000038014000100240B5
:1022600058000240B80100202E2E2F5372632F73A6
:10227000746D3332663078785F68616C5F6D73704F
:102280002E63000000000140FC01002000440040DB
:10229000F8B5054604466035A87A202841D10029C2
:1022A0000BD0002A09D00123A0681B03984206D155
:1022B0002069002803D1C80701D00120F8BD287A81
:1022C00001282ED001202872582061650253002673
:1022D000E6662220A872616E13488862616E134818
:1022E000C862616E12480863606E13464663676D8C
:1022F00021683A462431606EFEF7A6FD2E722068F2
:102300000168FF22013211430160206881680122C7
:102310001143816020688168402211438160002060
:10232000F8BD0220F8BD0000DD2B00081D2C0008C0
:10233000912B0008704770477047FEE701688A6973
:10234000D243920701D400228A6200688169C9439E
:10235000C90703D0816901221143816170470000E0
:10236000F8B504460068174680690E46C043C006AB
:102370002CD42546403520688069C04380060FD59F
:10238000701CF8D0002E04D0FEF756FEC01BB042E1
:10239000F1D9202068700020A87028700320F8BDB3
:1023A00021681020C86120682026C6612046FFF7FA
:1023B000C5FF20684168064A1140416004206064FE
:1023C0006E700020A87028700120F8BD0020F8BDB4
:1023D00000E800FEF8B504460120164640031D46FD
:1023E000DAB2C3020090079F204600F029F83A466F
:1023F0002046069900F081F8002803D0606C04287C
:102400001BD018E02846F5B2012809D02168300A0F
:1024100088623A462046069900F06FF80028EDD110
:10242000206885620097002280212046069B00F0EC
:1024300019F8002800D00320F8BD0120F8BD0000E5
:1024400070B50068049D44688905890D1204044E26
:1024500011431943344029432143416070BD0000BA
:10246000009800FCF8B51C4617460E46054611E0DC
:10247000601C0FD0002C05D0FEF7DEFD0699401A37
:10248000A04207D92020403568700020A87028702D
:102490000320F8BD286881693046884304D00020B5
:1024A000B842E5D00020F8BD0120F9E770B5164626
:1024B0000D4604461AE0324629462046FFF750FFF3
:1024C000002801D0012070BD002D04D0FEF7B4FD1E
:1024D000801BA8420AD9616C20200143616440340A
:1024E00060700020A0702070032070BD206880699B
:1024F000C0438006DFD4002070BD70B516460C4680
:1025000005461CE0324621462846FFF729FF0028F1
:1025100001D0012070BD601C11D0002C04D0FEF74A
:102520008BFD801BA0420AD9696C2020014369649D
:10253000403568700020A8702870032070BD28689E
:102540008069C0438007DDD4002070BD002809D019
:10255000192252028018002141603222816082815A
:1025600001700120704719214902401841688068B4
:10257000814201D1012070470020704710B5192118
:1025800049024418A0683221401CFDF7C7FD60686D
:10259000814201D1012010BD002010BDF0B52048BE
:1025A00087B04269012189050A43426142690A40B4
:1025B00005924269C9100A43426142690A40059284
:1025C000426989100A43426142690A4005924269A0
:1025D00049000A4342614069124F084005900022B9
:1025E0007F213846FEF722FD0126F6030022314600
:1025F0000D48FEF71BFD7F2000240125009002946A
:102600006946019503943846FEF762FC02946946D8
:102610000548009601950394FEF75AFC07B0F0BDFB
:1026200000100240000800480004004810B512489D
:1026300010490160114941600021816001614161DF
:1026400081610122C161C2600162FEF745FD00287F
:1026500000D0FEE700210848FEF7F4FC002800D077
:10266000FEE700210448FEF712FD002800D0FEE737
:1026700010BD0000005400404C0000205D3E3020A2
:1026800010B5144886B012490160002431218460DD
:1026900041602F210461C16080218161FFF76CFAE4
:1026A000002800D0FEE70120000300906946094899
:1026B000FFF7A1FA002800D0FEE7049404A905481A
:1026C0000594FFF735FA002800D0FEE706B010BDEC
:1026D000000400409800002010B50C480A49016031
:1026E0004B21C901416000218160C16001618161AC
:1026F000C1610C22016242614162FFF707FD0028BF
:1027000000D0FEE710BD000000380140D8000020D6
:1027100010B50C480A4901604B2149024160002173
:102720008160C16001618161C1610C22016242610D
:102730004162FFF7EBFC002800D0FEE710BD00006F
:102740000044004048010020704700008307FF223A
:10275000DB0E9A408907090E994000280BDA000722
:10276000000F0838830808489B001818C369934372
:102770000B43C3617047830804489B001818036823
:1027800093430B430360704700ED00E000E400E07A
:10279000704770B50E460546FFF7E5FE002817D1D5
:1027A000192040022C182078012811D060683221AD
:1027B000401CFDF7B3FC080261604119FF220132A1
:1027C000304600F0E1FCA089401CA081012070BDD2
:1027D000002070BD0FB4F8B50546479FFFF7CEFE49
:1027E000002809D11920012140022C180E02217065
:1027F000012F06D0002F11D00020F8BC08BC04B077
:102800001847A0683221401CFDF788FC0802A1602F
:102810004019324607A900F0B7FC0BE06068324669
:102820000002401907A900F0AFFC6068002808D03A
:10283000401E6060A089401EA08100202070012001
:10284000DBE73120F5E7704710B5FEF76DFDFFF7C8
:1028500069F910BD30B599B00120009001900004D5
:102860000A900001022500240B9009950C946846FB
:10287000FEF748FF002800D0FEE7072014901694CA
:1028800001211595179414A8FEF738FE002800D0F2
:10289000FEE723200D90102011900F9410940DA8A6
:1028A000FEF79CFD002800D0FEE7FEF7D1FE7D215B
:1028B000C900FDF71DFCFFF71DF90420FFF70CF917
:1028C00000221146501EFEF785FD19B030BD0000F4
:1028D000124801680122114301604168104A114009
:1028E000416001680F4A11400160016801229204B1
:1028F0009143016041683F22120491434160C16AE3
:1029000009090901C162016B074A11400163416B6A
:10291000490849004163002181607047001002406E
:102920000CB8FF08FFFFF6FE2CFEFCFF10B50248B6
:10293000FFF7D8F910BD000098000020F0B502683C
:102940001D4B0124A4071D4D984203D0A04201D085
:10295000A84203D17026B2434E683243184E194F35
:1029600098420DD0A0420BD0A84209D0164CA042EC
:1029700006D0B04204D0B84202D0144CA04204D1D8
:1029800003242402A243CC6822438024A2434C693E
:10299000224302608A68C2620A688262984206D054
:1029A000B04204D0B84202D0084A904201D109692D
:1029B000016301214161F0BD002C01400004004091
:1029C0000040014000440140002000400048014018
:1029D00030B58468FF252D021B021343AC430B4323
:1029E0002343836030BD826870239A430A430721E2
:1029F0000A438260704730B5036A046A6408640061
:102A000004628469F025AC43120122430A24A343E3
:102A10000B438261036230BD30B5036A1024A343C7
:102A200003628369046A0F252D031203AB431A4323
:102A3000A0239C43090121438261016230BD10B58E
:102A4000818CC90707D001684A6801235B049A4357
:102A5000836A1A434A60818C890707D501684A68EE
:102A600001231B049A43C36A1A434A60818C4907B5
:102A700007D501684A6801239B049A43036B1A43F4
:102A80004A60818C090707D501684A680123DB0386
:102A90009A43436B1A434A60818CC90607D5016883
:102AA0008A6801231B039A43836B1A438A60818CD3
:102AB000890607D501688A6801235B039A43C36BC3
:102AC0001A438A60818C490612D501684B6801223D
:102AD0001205046C934323434B60016C914207D170
:102AE00001684A6803235B059A43436C1A434A60B2
:102AF000818C090607D501684A680123DB04806CD4
:102B00009A4302434A6010BDF8B500250446C566E5
:102B1000FEF792FA064616492068884202D0154907
:102B200088421DD10068144F000709D501213346A2
:102B3000002249052046009700F0B9F900280DD180
:102B40002068006840070BD5012133460022890523
:102B50002046009700F0ABF9002801D00320F8BD13
:102B6000202060346072A07225720020F8BD000041
:102B70000038014000440040FFFFFF0110B5406AEB
:102B80000022014640314A834A82FFF723FA10BDF2
:102B900070B5446A204660300546407A00262128F8
:102BA00008D120688068000604D5522006532046CC
:102BB00000F055F8A87A222808D1206880684006DD
:102BC00004D55A200653204600F02DF8E06E10215F
:102BD0000843E0662046FFF7FDF970BD10B50146D9
:102BE0000968406A0968890615D400225A210A52E8
:102BF00001680A68FF2301339A430A6001688A6802
:102C0000520852008A6001688A6840239A438A60A9
:102C100020226A210A54FFF78DFB10BD10B5406ACF
:102C2000FFF789FB10BD01680A68FF2321339A432F
:102C30000A6001688A68520852008A602021603068
:102C40008172704710B501680A6840239A430A6090
:102C5000202269210A54FFF76FFB002010BD016894
:102C60000A68C0239A430A6020216030417270478D
:102C700070B50246403201466031938B8D7A0C4626
:102C80000168222D05D0886908221043886102203E
:102C900070BD898C012685683603B54202D105696D
:102CA000002D0BD01940436D5D1C45651970518B8B
:102CB000491E0904090C518307D015E0456D1940E0
:102CC0002980416D891C4165F1E701680A68FF238D
:102CD00021339A430A6001688A68520852008A6068
:102CE0002021A172FFF726FB002070BDF8B5044635
:102CF000A3682269E56913436269102000212A4311
:102D0000134322680E461568474F3D401D4315602A
:102D10002268536803252D03AB43E5682B435360BA
:102D2000A369226A1343226895680B273F02BD43BB
:102D30001D4395603D4B25683D4F02039D420AD1DE
:102D40003B6B9B079B0F20D0012B14D0022B14D080
:102D5000032B1BD10DE0374B9D4210D13B6B03275A
:102D60003F043B4011D09B1A05D09B1A05D09342DB
:102D70000CD102200AE0042008E0082006E02E4BD7
:102D80009D4202D02D4B9D4200D100200123E769D6
:102D9000DB039F4222D100280CD002280DD004284A
:102DA00013D0082817D001260A0912010807400F7E
:102DB00010432EE0FEF752FC09E06168204A480803
:102DC0008018FDF795F981B2EEE7FEF757FC6168D0
:102DD00040004A08F4E761684808F1E7002808D095
:102DE000022809D004280CD0082815D00126304626
:102DF000F8BDFEF733FC06E06168124A4808801807
:102E00000DE0FEF73BFC61684A088018FDF770F999
:102E100080B22168C860EAE761684808C018FDF719
:102E200067F980B2E860E2E7F369FFEF003801403C
:102E3000001002400044004000480040004C0040A8
:102E40000024F40000127A006921095C212901D0D4
:102E500002207047014640314A8A002A12D00123DD
:102E600082681B039A4202D10269002A15D0C26C03
:102E7000531CC364006812780285488A401E488249
:102E80000020704701680A6880239A430A6000683E
:102E90000168402211430160F2E7C26C03681288A6
:102EA000D205D20D1A85C26C921CC264E5E7FFB54B
:102EB00081B01E46174605460A9C1CE0601C1AD0CD
:102EC000002C04D0FEF7B8F8801BA04213D9286864
:102ED0000168FF22A1329143016028688168490896
:102EE00049008160202060356872A8720020287235
:102EF000032005B0F0BD2868C1690298884304D05A
:102F00000020B842DAD00020F3E70120F9E7000002
:102F100010B50E48FFF760F80C480D49006888426C
:102F200012D1C169C943C9060ED4102101620748F4
:102F3000FFF724F8074800684068FF21081A06498F
:102F4000087006490120087010BD0000D80000205C
:102F500000380140B8010020440000204500002056
:102F6000F0B51C4EFFB07078012830D100251A4A08
:102F70007570D41F31462846F83C097803E0235C7D
:102F800017187B70401C8842F9DB11700120124930
:102F90003D90F4220C316846FDF7E5F8FF2201323E
:102FA0000D493EA8FDF7DFF83EAF0ECF0B48FFF707
:102FB00011FC0020317801E02554401C8842FBDBE5
:102FC00005493570FF22FF390548FFF761F97FB0E9
:102FD000F0BD0000440000203F030020400400201A
:102FE000D8000020FEE72021020C01D0102110465D
:102FF000020A01D010460839020901D01046091F03
:10300000820801D01046891E420801D0881E7047F0
:10301000081A704730B47446641E2578641CAB42AD
:1030200000D21D46635D5B00E31830BC184702E028
:1030300008C8121F08C1002AFAD170477047002043
:1030400001E001C1121F002AFBD170471FB5FEF736
:1030500073F9FFF7FFFBFFF7A1FA46484169012426
:1030600021434161406900222040009011460B201D
:10307000FEF7B0F90B20FEF7A3F9FFF72DFBFFF7E2
:1030800047FBFFF7D3FAFFF7FBFA3B48FEF7A8FD33
:10309000002201211B20FEF79DF91B20FEF790F96D
:1030A0003648FFF753FA344840300068016810256D
:1030B000294301603048FF2231494030FFF7E8F8EA
:1030C0000022E1032F48FDF7B1FFB42069460873E1
:1030D000294803AE012310225E214C380096029548
:1030E0000194FEF753F80520FDF7E3FE2248012383
:1030F00010225C214C38009602950194FEF746F8A8
:103100000520FDF7D6FE1C480123102258214C381B
:10311000009602950194FEF739F80520FDF7C9FEE7
:1031200015480123102256214C380096029501942F
:10313000FEF72CF80520FDF7BCFE0F4801231022F6
:1031400054214C38009602950194FEF71FF8052093
:10315000FDF7AFFE08480123102250214C3800969D
:1031600002950194FEF712F8FFF7FAFEFDF720FA38
:10317000FAE7000000100240980000204004002000
:10318000400200200004004810B5034603E00C781C
:103190000470401C491C521EF9D2184610BD000094
:1031A00000000000000001020304060708090000F7
:1031B0000000010203040000D831000800000020D4
:1031C0004C0000002E300008243200084C00002083
:1031D000043A00003E300008010001000100010037
:1031E00001000100000000000000000000000000DD
:1031F00000000000000000000000000000000000CF
:1032000000000000000000000000000000000000BE
:1032100000000000000000000000000000000000AE
:0432200000127A001E
:04000005080000C12E
:00000001FF
